:020000040800F2
:10000000D0090020C1050008C5020008C702000889
:10001000CB020008CF020008D30200080000000055
:10002000000000000000000000000000D7020008EF
:10003000D902000800000000DB020008DD02000811
:10004000DB050008DB050008DB050008DB05000810
:10005000DB050008DB050008DB050008DB05000800
:10006000DB050008DB050008DB050008DB050008F0
:10007000DB050008DB050008DB050008DB050008E0
:10008000DB050008DB050008DB050008DB050008D0
:10009000DB050008DB050008DB050008DB050008C0
:1000A000DB050008DB050008DB050008DB050008B0
:1000B000DB050008DB050008212C0008DB05000833
:1000C000DB050008DB050008DB050008DB05000890
:1000D000DB05000891280008DB050008493000080E
:1000E000DB050008DB050008DB050008DB05000870
:1000F000DB050008DB050008DB050008DB05000860
:10010000DB050008DB050008DB050008DB0500084F
:10011000A1370008DB050008FD370008DB050008F3
:10012000DB050008DB050008DB050008DB0500082F
:1001300000F002F800F0B0F80AA090E8000C824449
:100140008344AAF10107DA4501D100F0A5F8AFF226
:10015000090EBAE80F0013F0010F18BFFB1A43F0A5
:1001600001031847B0A70000D0A700000A444FF0D1
:10017000000C10F8013B13F0070408BF10F8014B06
:100180001D1108BF10F8015B641E05D010F8016B4B
:10019000641E01F8016BF9D113F0080F1EBF10F8AF
:1001A000014BAD1C0C1B09D16D1E58BF01F801CBD2
:1001B000FAD505E014F8016B01F8016B6D1EF9D555
:1001C0009142D6D37047000000230024002500266A
:1001D000103A28BF78C1FBD8520728BF30C148BFAA
:1001E0000B6070476E2906F0C880702906F03384D2
:1001F00066290AF0DF8165290AF0DC8167290AF0A7
:10020000D98161290AF0D88103681B0A28BF41F00F
:100210008001692905F0B485642905F0B185752947
:1002200005F0AE856F2906F0C083782906F0FF83BC
:10023000E92906F05B83E42906F05883F52906F0E6
:100240005583EF2906F0BD83F82906F0FE83036885
:10025000DB0928BF41F08001632906F0C7867329B6
:1002600006F0CC86E32906F0D786F32906F0DC8673
:10027000002070471FB506F09FFC040000200021FD
:1002800008F0CEFF401C60600020002108F0DEFF77
:10029000E0601FBD10B510BD06F08EFF1146FFF7E0
:1002A000E9FF00F036F907F029FA03B4FFF7F2FF8F
:1002B00003BC02F095FA000030BF72B662B680F35C
:1002C00008887047704700BFFEE700BFFEE700BF29
:1002D000FEE700BFFEE770477047704770470000B9
:1002E0000CB50020019000906C48006840F480300C
:1002F0006A49086000BF6948006800F40030009057
:100300000198401C0190009818B90198B0F5A06FB1
:10031000F1D16248006800F4003010B10120009073
:1003200001E0002000900098012843D15C4800685B
:1003300040F010005A4908600846006820F00300A9
:1003400008600846006840F00200086053484068B2
:10035000524948600846406848600846406840F492
:10036000806048600846406820F47C104860084679
:10037000406840F4E81048600846006840F080702B
:10038000086000BF4548006800F000700028F9D000
:100390004248406820F003004049486008464068F1
:1003A00040F00200486000BF3C48406800F00C008C
:1003B0000828F9D10CBD10B5FFF792FF10BD10B59C
:1003C0003648006840F0010034490860084640683B
:1003D00034490840314948600846006832490840BD
:1003E0002E4908600846006820F48020086008460E
:1003F000406820F4FE0048604FF41F008860FFF75B
:10040000DAFF4FF000602949086010BD10B50021E7
:1004100000200022214B5B6803F00C0121B104296C
:1004200006D0082928D107E0214B224C236027E081
:100430001F4B204C236023E0184B5B6803F47010C3
:10044000164B5B6803F48032022303EB904022B921
:10045000194B4343174C23600DE0104B5B6803F4CA
:10046000003323B1144B4343124C236003E0104B81
:100470004343104C236003E00D4B0E4C236000BF40
:1004800000BF064B5B68C3F303130C4CE15C094BE4
:100490001B68CB40074C236010BD000000100240D9
:1004A000002002400000FFF8FFFFF6FE08ED00E02C
:1004B00000127A000000002000093D000400002026
:1004C00038B504460121102000F04CFEADF8004084
:1004D00010208DF8030003208DF8020069462F4894
:1004E00000F084FB21462D4800F02DFC38BD70B58E
:1004F0002B480068642190FBF1F201FB12042848AC
:10050000006890FBF1F52246294626A005F0E8FB9D
:1005100070BD10B5022002F00BF801F099FF022027
:1005200002F0F0F8012002F0EDF802F04DFC02F0CC
:1005300081FE00BF03F0A4FA0028FBD105F0F1F919
:100540000521C82005F01AFA4FF4E13002F055F900
:100550004FF4165002F00CFD4FF4E13003F0B2F806
:1005600003F006FD02F08AFB03F012FD0120FFF705
:10057000A7FF04F0D9F904F004F903F03AFA3121A5
:1005800041F61F4002F0EAFA002403E001E003F024
:1005900034FAFCE7642CF9DB002010BD00100140A8
:1005A000AC0100204261747465727920566F6C74DE
:1005B0006167653A25642E25303264560D0A0000C5
:1005C0000948804709480047FEE7FEE7FEE7FEE7E7
:1005D000FEE7FEE7FEE7FEE7FEE7FEE70448054923
:1005E000054A064B70470000BF03000831010008B0
:1005F000D0030020D0090020D0050020D005002025
:1006000031490143314A1160704770B50021002320
:100610000F22C47804B32D4C246804F4E064C4F5BC
:10062000E064210AC1F10403CA40447804FA03F1EA
:100630008478144021430901254C0678A15504789B
:1006400004F01F050124AC4005786D11AD0005F1E3
:10065000E025C5F8004109E0047804F01F050124F5
:10066000AC401C4D0678761145F8264070BD1A4AFC
:100670000A400243154B1B1F1A60704739B1134AD9
:10068000121D12680243114B1B1D1A6006E00F4A2F
:10069000121D126882430D4B1B1D1A6070470428FF
:1006A00008D14FF0E021096941F004014FF0E02248
:1006B000116107E04FF0E021096921F004014FF0DA
:1006C000E0221161704700000000FA050CED00E027
:1006D00000E400E080E100E080FFFF1F10B5044669
:1006E000FA48844208D10121401500F055FD00214F
:1006F000601500F051FD17E0F548844208D1012152
:10070000001500F049FD0021201500F045FD0BE02B
:10071000F048844208D10121C80300F03DFD0021CA
:100720004FF4004000F038FD10BD30B50246002007
:1007300000235068E84C20400D790C6844EA0524F9
:10074000204350609068E54C2040D1E902542C438E
:100750004D7944EA450420439060D06A20F470004B
:100760000C7C641EE4B2234340EA0350D06230BDE7
:1007700000210160017141718160C160012101743A
:10078000704721B1826842F00102826003E0826812
:1007900022F001028260704721B1826842F48072C7
:1007A000826003E0826822F480728260704710B534
:1007B0000023CBB21AB144681C43446002E0446891
:1007C0009C43446010BD816841F00801816070471E
:1007D000014600208A6802F008020AB1012000E008
:1007E00000207047816841F0040181607047014634
:1007F00000208A6802F004020AB1012000E0002013
:10080000704721B1826842F4A002826003E08268EE
:1008100022F4A00282607047014600208A6802F438
:1008200080020AB1012000E00020704710B50A469E
:1008300000210023416821F46041531E41EA433105
:10084000416010BD21B1426842F40062426003E0A1
:10085000426822F4006242607047F0B504460D46DB
:1008600000200021092D11DDE068A5F10A0606EB44
:100870004607072606FA07F18843A5F10A0606EBA4
:10088000460603FA06F10843E0600CE0206905EB38
:100890004507072606FA07F1884305EB450603FAE4
:1008A00006F108432061072A0FDA606B561E06EB3B
:1008B00086071F2606FA07F18843561E06EB8606B2
:1008C00005FA06F10843606322E00D2A0FDA206B77
:1008D000D61F06EB86071F2606FA07F18843D61FA8
:1008E00006EB860605FA06F10843206310E0E06A8D
:1008F000A2F10D0606EB86071F2606FA07F18843CC
:10090000A2F10D0606EB860605FA06F10843E06241
:10091000F0BD21B1826842F48012826003E08268F7
:1009200022F48012826070470146C86C80B2704722
:1009300066484C300068704721B1426842F48062DA
:10094000426003E0426822F480624260704721B155
:10095000426842F48052426003E0426822F48052CE
:10096000426070470A460021816821F4E04111434A
:100970008160704721B1826842F40042826003E0E6
:10098000826822F400428260704721B1826842F49A
:100990000212826003E0826822F4021282607047D1
:1009A000014600208A6802F400120AB1012000E02A
:1009B00000207047F0B504461546002000220026AE
:1009C000092911DDE068A1F10A0707EB470C0727A9
:1009D00007FA0CF29043A1F10A0707EB470703FA65
:1009E00007F21043E0600CE0206901EB410C07279F
:1009F00007FA0CF2904301EB410703FA07F21043A8
:100A00002061A06BC0F30156EF1C06F1010CA7EBAF
:100A10000C0707EB870C1F2707FA0CF29043EF1C1B
:100A200006F1010CA7EB0C0707EB870701FA07F2A9
:100A30001043A063F0BD10B50A4600210023816B6E
:100A400021F44011531E41EA0351816310BD08B5E2
:100A5000002300930090009B0B440093009B1A60BE
:100A600008BD08B5024600200090009201F1280060
:100A7000009B184400900098006880B208BD0A46A8
:100A800000214168164B1940114341607047416293
:100A9000826270470A460021416821F01F0111431C
:100AA0004160704740B109490831096841F40001CB
:100AB000064A0832116007E004490831096821F448
:100AC0000001024A08321160704700000024014012
:100AD00000280140003C0140FFFEF0FFFDF7F1FF60
:100AE000FFFD3FFF0246002013680B400BB10120C1
:100AF00000E000207047CA430260704770B50246AC
:100B00000020002300240B125568CEB205EA06042B
:100B100015681D4015B10CB1012000E0002070BD2A
:100B200000220A12D34303607047000010B5044648
:100B3000CC48844208D10121042000F02DFB002183
:100B4000042000F029FB46E0C748844208D1012177
:100B5000082000F021FB0021082000F01DFB3AE0F6
:100B6000C248844208D10121102000F015FB002169
:100B7000102000F011FB2EE0BD48844208D1012175
:100B8000202000F009FB0021202000F005FB22E0DE
:100B9000B848844208D10121402000F0FDFA00212C
:100BA000402000F0F9FA16E0B348844208D1012150
:100BB000802000F0F1FA0021802000F0EDFA0AE038
:100BC000AE48844207D10121801500F0E5FA0021EA
:100BD000A01500F0E1FA10BD10B50121084600F0A3
:100BE000DBFA0021012000F0D7FA10BD2DE9F04119
:100BF000024600250026002000230024002791F84B
:100C000003C00CF00F0591F803C00CF0100CBCF100
:100C1000000F03D091F802C04CEA050591F800C01E
:100C2000BCF1000F31D0146800202BE04FF0010C14
:100C30000CFA00F3B1F800C00CEA03069E4220D182
:100C400083004FF00F0C0CFA03F7BC4305FA03FCCA
:100C50004CEA040491F803C0BCF1280F06D14FF010
:100C6000010C0CFA00FCC2F814C00AE091F803C0B1
:100C7000BCF1480F05D14FF0010C0CFA00FCC2F892
:100C800010C0401C0828D1D31460B1F800C0BCF1DA
:100C9000FF0F34DD546800202EE000F1080C4FF007
:100CA000010808FA0CF3B1F800C00CEA03069E42F2
:100CB00021D183004FF00F0C0CFA03F7BC4305FA67
:100CC00003FC4CEA040491F803C0BCF1280F05D1E1
:100CD00000F1080C08FA0CF8C2F8148091F803C06F
:100CE000BCF1480F07D100F1080C4FF0010808FAD9
:100CF0000CF8C2F81080401C0828CED35460BDE820
:100D0000F0814FF6FF710180022181700421C170D2
:100D100070470246002093680B400BB1012000E0B1
:100D2000002070470146886880B270470246002064
:100D3000D3680B400BB1012000E000207047014652
:100D4000C86880B2704701617047416170470AB15D
:100D5000016100E041617047C16070474FF480322B
:100D60000A438261816182618269826970470246B9
:100D70000020434B18684FF68073184040EA021079
:100D800008433F4B186070473E49C8617047F0B553
:100D90000A46002300240021002500F00046B6F199
:100DA000004F02D1364EF16901E0354E7168C0F353
:100DB000034583B200F44016B6F5401F08D121F078
:100DC00070612F4E766826F070662D4F7E6012E0BF
:100DD00000F48016B6F5801F06D1032606FA05F446
:100DE000A14341F0706106E0460D360103FA06F6B4
:100DF000B14341F0706122B1460D360103FA06F6A7
:100E0000314300F00046B6F1004F02D11C4EF161B3
:100E100001E01B4E7160F0BD30B500228B071C0F46
:100E20000F2303FA04F2164B08338C1053F82430C6
:100E30009343134C08348D1044F8253023468C100E
:100E400053F824308C07240F00FA04F423430C4C8D
:100E500008348D1044F8253030BD0A49DC31086073
:100E60007047000000080140000C014000100140E4
:100E70000014014000180140001C01400020014006
:100E80000000014000002042DF48006840F00100FF
:100E9000DD49086008464068DC490840DA49486096
:100EA00008460068DA490840D749086008460068E3
:100EB00020F4802008600846406820F4FE00486066
:100EC0004FF41F0088607047CF49096821F48031D2
:100ED000CD4A11601146096821F480211160B0F5F6
:100EE000803F03D0B0F5802F0ED106E0C6490968D7
:100EF00041F48031C44A116007E0C349096841F4F4
:100F0000A021C14A116000E000BF00BF704710B5CA
:100F100001460022002300204A11012A02D1BA4CC6
:100F2000236806E0022A02D1B74C236A01E0B64CDE
:100F3000636A01F01F02012494401C400CB101209F
:100F400000E0002010BD38B50020009000240025EE
:100F500000BF3120FFF7DBFF05460098401C0090E2
:100F60000098B0F5A06F01D0002DF2D03120FFF72E
:100F7000CEFF08B1012400E00024204638BD014620
:100F80000020A14A106820F0F80040EAC10010607B
:100F90007047A04908607047024600209A4B586885
:100FA00020F47C1042EA01031843974B58607047C5
:100FB00098490866704701460020934A506820F01F
:100FC00003000843506070478F48406800F00C00F1
:100FD0007047014600208C4A506820F0F00008431A
:100FE0005060704701460020874A506820F4E06056
:100FF00008435060704701460020834A506820F43F
:10100000605040EAC1005060704729B17E4A527A70
:1010100002437D4B5A7204E07B4A527A82437A4BF8
:101020005A7270477B49D8310860704701460020EA
:10103000754A506820F440400843506070470021D2
:10104000714A20321170704A82F82010012802D0B3
:1010500004280AD104E001216B4A2032117005E016
:101060000521694A2032117000E000BF00BF7047BF
:101070006949086070476449096A0143624A11621C
:101080007047654944390860704730B50021002237
:10109000002400235C4D6D6805F00C0121B104298A
:1010A00005D0082923D105E05C4D056022E05B4DA9
:1010B00005601FE0544D6D6805F47012524D6D6867
:1010C00005F48034022505EB92421CB9544D55437A
:1010D00005600BE04C4D6D6805F400351DB1504DB9
:1010E0005543056002E04D4D5543056002E04B4D10
:1010F000056000BF00BF444D6D6805F0F0010909AF
:10110000484D6B5C0568DD4045603F4D6D6805F4FA
:10111000E061090A434D6B5C4568DD4085603A4DEE
:101120006D6805F46051C90A3E4D6B5C4568DD4051
:10113000C560354D6D6805F44041890B3A4D6B5CD7
:10114000C568B5FBF3F5056130BD29B12E4A52697A
:1011500002432D4B5A6104E02B4A526982432A4BC9
:101160005A61704729B1284A92690243264B9A6115
:1011700004E0254A92698243234B9A61704729B162
:10118000214AD2690243204BDA6104E01E4AD26947
:1011900082431D4BDA61704729B11B4AD268024372
:1011A000194BDA6004E0184AD2688243164BDA60C1
:1011B000704729B1144A12690243134B1A6104E0C3
:1011C000114A12698243104B1A6170471249403923
:1011D000086070470F49C86470470B49C871704771
:1011E0000948406A40F080700749486270470146EC
:1011F0000020054A92680A400AB1012000E0002060
:101200007047014988727047001002400000FFF8E3
:10121000FFFFF6FE000042428004424200127A00C4
:1012200000093D00310000204100002010B50446B7
:10123000FE48844208D10121C014FFF7ADFF002110
:10124000E014FFF7A9FFC4E0B4F1804F08D10121F9
:101250000846FFF7AEFF00210120FFF7AAFFB8E024
:10126000F348844208D101210220FFF7A2FF0021A8
:101270000220FFF79EFFACE0EE48844208D1012136
:101280000420FFF796FF00210420FFF792FFA0E063
:10129000E948844208D101210820FFF78AFF002194
:1012A0000820FFF786FF94E0E448844208D101213A
:1012B0001020FFF77EFF00211020FFF77AFF88E063
:1012C000DF48844208D101212020FFF772FF00216E
:1012D0002020FFF76EFF7CE0DA48844208D101212C
:1012E0004014FFF759FF00216014FFF755FF70E02D
:1012F000D548844209D10121C804FFF74DFF0021E0
:101300004FF40020FFF748FF63E0D048844209D142
:1013100001210805FFF740FF00214FF48010FFF77F
:101320003BFF56E0CA48844209D101214805FFF736
:1013300033FF00214FF40010FFF72EFF49E0C548AE
:10134000844208D101214020FFF733FF00214020D3
:10135000FFF72FFF3DE0C048844208D101218020E3
:10136000FFF727FF00218020FFF723FF31E0BB4874
:10137000844208D101218015FFF71BFF0021A01531
:10138000FFF717FF25E0B648844209D10121080480
:10139000FFF702FF00214FF48030FFF7FDFE18E059
:1013A000B048844209D101214804FFF7F5FE00212D
:1013B0004FF40030FFF7F0FE0BE0AB48844208D159
:1013C00001218804FFF7E8FE00214FF48020FFF799
:1013D000E3FE10BD00220288944B98420ED0994B38
:1013E00098420BD0B0F1804F08D0914B984205D075
:1013F000904B984202D0904B984204D14FF68F7395
:101400001A404B881A438D4B984207D08C4B984218
:1014100004D04FF6FF431A40CB881A4302808B88D2
:1014200083850B880385814B98420BD0854B98426E
:1014300008D08B4B984205D08A4B984202D08A4BF9
:10144000984201D10B7A038601238382704770B5DD
:10145000002400220023058C4FF6FE7635400584DB
:10146000028C8388048B4FF68F752C40B51E2C4060
:101470000D882C43751E2A400D892A434D882A4326
:101480006A4DA8420BD06F4DA84208D0744DA842B7
:1014900005D0744DA84202D0734DA84213D14FF627
:1014A000F7752A404D892A434FF6FB752A408D88EF
:1014B0002A434FF6FF652B404FF6FF552B408D8991
:1014C0002B43CD892B4383800483CD88858602847A
:1014D00070BD70B5002400220023058C4FF6EF7616
:1014E00035400584028C8388048B48F6FF752C40B8
:1014F0004FF6FF452C400D884FF6FF7606EA05258E
:101500002C434FF6DF752A400D8906EA05152A435C
:101510004D8806EA05152A43444DA84202D0494D9C
:10152000A8421DD14FF67F752A404D894FF6FF76B0
:1015300006EA05152A434FF6BF752A408D8806EA4C
:1015400005152A434FF6FF352B404FF2FF752B4010
:101550008D8906EA85052B43CD8906EA85052B434F
:1015600083800483CD880587028470BD70B5002414
:1015700000220023058C4FF6FF6635400584028C5F
:101580008388848B4FF68F752C404FF6FC752C406A
:101590000D882C434FF6FF552A400D894FF6FF76F4
:1015A00006EA05252A434D8806EA05252A431F4DEC
:1015B000A84202D0234DA8421DD14FF2FF752A4008
:1015C0004D894FF6FF7606EA05252A434FF6FF358B
:1015D0002A408D8806EA05252A434EF6FF752B40E2
:1015E0004DF6FF752B408D8906EA05152B43CD89F5
:1015F00006EA05152B4383808483CD888587028482
:1016000070BD70B5002200230024058C4EF6FF76D5
:1016100035400584038C8488828B48F6FF752A4008
:101620004FF6FF452A400D8820E00000002C0140C5
:101630000004004000080040000C00400010004082
:101640000014004000340140004C014000500140B3
:101650000054014000180040001C004000200040E1
:101660000040014000440140004801404FF6FF7631
:1016700006EA05252A434DF6FF752B400D8906EA3B
:1016800005352B434D8806EA05352B43FA4DA84214
:1016900002D0FA4DA84208D14BF6FF752C408D8937
:1016A0004FF6FF7606EA85152C4384808283CD8829
:1016B000A0F84050038470BD828B4FF2FF331A4074
:1016C0008283828B4FF6FF7303EA01231A438283DE
:1016D0007047F0B50C461546002200210026078C05
:1016E0004EF6FF7C07EA0C070784828B018C4FF6CD
:1016F000FF7707EA043640F6FF473A404FF6FF7798
:1017000007EA05273A434FF6FF7707EA03373A43DC
:10171000D94FB8420ED0D94FB8420BD0B0F1804F5C
:1017200008D0D74FB84205D0D64FB84202D0D64FD6
:10173000B84206D14DF6FF77394046F48057394319
:1017400005E047F6FF57394044F480573943828318
:101750000184F0BD828B4FF6F3731A408283828B33
:101760000A4382837047F0B50C46154600220021DB
:101770000026078C4FF6FF6C07EA0C070784828B64
:10178000018C4FF6FF7707EA04264FF60C773A40B4
:101790004FF6FF7707EA03172F433A43B64FB84295
:1017A0000ED0B64FB8420BD0B0F1804F08D0B44F36
:1017B000B84205D0B34FB84202D0B34FB84206D1B9
:1017C0004FF6FF57394046F48077394305E04FF232
:1017D000FF57394044F48077394382830184F0BD58
:1017E000028B4FF2FF331A400283028B4FF6FF73D6
:1017F00003EA01231A4302837047F0B50C461546ED
:10180000002200210026078C4FF6EF7C07EA0C0728
:101810000784028B018C4FF6FF7707EA041640F627
:10182000FF473A404FF6FF7707EA03373A434FF650
:10183000FF7707EA05273A438F4FB8420ED08F4F04
:10184000B8420BD0B0F1804F08D08D4FB84205D0D0
:101850008C4FB84202D08C4FB84206D14FF6DF779A
:10186000394046F01007394305E04FF65F773940BD
:1018700044F01007394302830184F0BD028B4FF618
:10188000F3731A400283028B0A4302837047F0B558
:101890000C46154600220021068C4FF6FE773E408E
:1018A0000684028B018C4FF60C7632407E1C06EAD1
:1018B00003162E433243704EB0420ED06F4EB042EC
:1018C0000BD0B0F1804F08D06D4EB04205D06D4EB8
:1018D000B04202D06C4EB04206D14FF6FD76314098
:1018E00044F00106314305E04FF6F576314044F00F
:1018F0000106314302830184F0BD70B505460C46F4
:101900005D4885420ED05D4885420BD0B5F1804FD1
:1019100008D05B48854205D05A48854202D05A48D3
:10192000854200D100E000BF208850B92389A288F9
:1019300061882846FFF7ABFFE1882846FFF79EFF46
:1019400025E0208804280AD12389A28861882846B6
:10195000FFF753FFE1882846FFF742FF17E0208892
:1019600008280AD12389A28861882846FFF7FBFE50
:10197000E1882846FFF7EEFE09E02389A288618806
:101980002846FFF7A6FEE1882846FFF795FE70BDC2
:101990002DE9F04105460C4600260127608808B96C
:1019A000022600E00026A088012801D1022700E0DD
:1019B00001272088A0B92389A28861882846FFF7DB
:1019C00066FFE1882846FFF759FF23893A463146EA
:1019D0002846FFF712FFE1882846FFF701FF13E0D2
:1019E0002389A28861882846FFF707FFE1882846F7
:1019F000FFF7F6FE23893A4631462846FFF747FFB0
:101A0000E1882846FFF73AFFBDE8F0810A884B8855
:101A10001A438B881A43CB881A430B891A434B8984
:101A20001A438B891A43A0F8442070474FF6FF7180
:101A3000818000210180C1804180017270470021B6
:101A4000018041808180C180018141818181C1818A
:101A50007047002101804180012181800021C180E7
:101A6000018170470021018041808180C180018116
:101A70004181818170470000002C01400034014009
:101A80000004004000080040000C004021B1028822
:101A900042F00102028004E002884FF6FE731A4011
:101AA0000280704731B1B0F8442042F40042A0F8FF
:101AB000442005E0B0F84420C2F30E02A0F8442010
:101AC00070471AB183890B43838102E083898B437A
:101AD000838170478182704741EA0203A0F8483051
:101AE00070471AB183890B43838102E083898B435A
:101AF0008381704701894FF6F87211400181704768
:101B00000A46002101894FF68F7319401143018164
:101B1000704730B504460D4629462046FFF7F0FFD2
:101B2000208940F00700208130BD2DE9F0410446B6
:101B30000D4616461F46602D06D13B460122314612
:101B40002046FFF75AFE05E03B460122314620467B
:101B5000FFF79DFE29462046FFF7D2FF208940F07F
:101B600007002081BDE8F08130B50C4600210189D5
:101B7000C9B24FF6FF7505EA0325154325432943EE
:101B8000018130BD2DE9F04105460E4617469846C5
:101B9000002443463A4631462846FFF7E5FF2C89A4
:101BA0004FF6F870044044F007044FF68F7004407D
:101BB00044F070042C81BDE8F081F0B504460D4678
:101BC00016461F463B46324629462046FFF7CCFFC5
:101BD000208940F480402081F0BD018582827047D9
:101BE0000A46002101884FF68F7319401143018086
:101BF0007047F0B50C4615461E4600210022002312
:101C00000189028B038C4FF6F877394021434FF658
:101C1000FC473A4040F201173A434FF6DD773B402C
:101C20004FF6FF7707EA06172F433B4301810283F4
:101C30000384F0BD0A460021018B4FF68F731940D3
:101C40001143018370470A460021018B48F6FF7358
:101C500019404FF6FF7303EA0223194301837047CB
:101C60000A460021818B4FF68F73194011438183FF
:101C700070470A460021818B48F6FF7319404FF6E2
:101C8000FF7303EA022319438183704721B102885D
:101C900042F08002028004E002884FF67F731A400F
:101CA0000280704721B1828842F00402828004E001
:101CB00082884FF6FB731A408280704721B1828878
:101CC00042F00802828004E082884FF6F7731A40DF
:101CD0008280704721B1828842F00102828004E054
:101CE00082884FF6FE731A40828070470A460021B0
:101CF000018B4FF6F77319401143018370470A4671
:101D00000021018B4FF2FF7319404FF6FF7303EA76
:101D100002231943018370470A460021818B4FF645
:101D2000F77319401143818370470A460021818B64
:101D30004FF2FF7319404FF6FF7303EA0223194372
:101D4000818370470A460021018B4FF6FB731940CF
:101D50001143018370470A460021018B4FF6FF3380
:101D600019404FF6FF7303EA0223194301837047BA
:101D70000A460021818B4FF6FB7319401143818382
:101D800070470A460021818B4FF6FF3319404FF60A
:101D9000FF7303EA02231943818370470A46002137
:101DA000018B4FF67F7319401143018370470A4638
:101DB0000021018BC1F30E014FF6FF7303EA0223EA
:101DC0001943018370470A460021818B4FF67F73C8
:101DD00019401143818370470A460021818BC1F36A
:101DE0000E014FF6FF7303EA022319438183704704
:101DF0000A460021018C4FF6FD73194011430184FE
:101E000070470A460021018C4FF6F77319401143C1
:101E1000018470470A460021018C4FF6DF73194098
:101E20004FF6FF7303EA02131943018470470A4611
:101E30000021018C4FF67F7319404FF6FF7303EAC0
:101E400002131943018470470A460021018C4FF6A2
:101E5000FF5319404FF6FF7303EA0223194301842D
:101E600070470A460021018C4FF2FF7319404FF66C
:101E7000FF7303EA02231943018470470A460021D5
:101E8000018C4DF6FF7319404FF6FF7303EA0233DE
:101E900019430184704730B5002301248C40A3B25C
:101EA000048C9C430484048C02FA01F5ADB22C43EB
:101EB000048430BD30B5002304248C40A3B2048CCC
:101EC0009C430484048C02FA01F5ADB22C430484D3
:101ED00030BD70B503460020002418461830012597
:101EE0008D40ACB21D8CA5431D8409B1082909D1D0
:101EF00000EB6100056825F0700505600568154375
:101F000005600EE00D1FC5F34E052844056825F455
:101F1000E045056005684FF6FF7606EA0226354380
:101F2000056070BD21B1028842F00202028004E027
:101F300002884FF6FD731A400280704721B1028873
:101F400042F00402028004E002884FF6FB731A405C
:101F50000280704721B1828842F08002828004E0D2
:101F600082884FF67F731A408280704702884FF64E
:101F7000F7731A40028002880A4302807047828801
:101F80004FF68F731A40828082880A43828070479E
:101F900002894FF6F8731A40028102890A430281CE
:101FA000704702894FF67F731A40028102890A4303
:101FB00002817047818470478185704781867047B0
:101FC0000187704781877047A0F8401070470288EA
:101FD0004FF6FF431A40028002880A43028070478E
:101FE0000146888E70470146088F70470146888FEA
:101FF00070470146B1F8400070470146888C704731
:102000000146088D704702460020138A0B400BB131
:10201000012000E000207047CA430282704730B5BB
:102020000246002000230024158A05EA0103958951
:1020300005EA010413B10CB1012000E0002030BD1D
:10204000CA4302827047000010B50446FB48844230
:1020500009D101218803FFF79FF800214FF4804048
:10206000FFF79AF832E0F648844209D1012148048A
:10207000FFF79FF800214FF40030FFF79AF825E0B2
:10208000F048844209D101218804FFF792F8002129
:102090004FF48020FFF78DF818E0EB48844209D117
:1020A0000121C804FFF785F800214FF40020FFF755
:1020B00080F80BE0E548844208D101210805FFF7CC
:1020C00078F800214FF48010FFF773F810BD2DE968
:1020D000F04786B005460E460024A24600BFA14642
:1020E0000027B08900B100BF2F462C8A4CF6FF7044
:1020F0000440F08804432C82AC894EF6F31004406F
:10210000B08831890843718908430443AC81AC8AA3
:102110004FF6FF400440B0890443AC8201A8FEF7AB
:10212000B4FFC648874202D1DDF810A001E0DDF817
:102130000CA0A88900F4004040B10AEBCA0000EBF3
:102140000A1031684900B0FBF1F807E00AEBCA0059
:1021500000EB0A1031688900B0FBF1F86420B8FB8D
:10216000F0F004012009642101FB1089A88900F422
:10217000004040B1322000EBC900B0FBF1F000F0AC
:102180000700044308E0322000EB09106421B0FB93
:10219000F1F000F00F0004432C8106B0BDE8F08799
:1021A0004FF41651016000218180C18001810C2112
:1021B000418100218181704710B502460020108ABC
:1021C0004FF2FF0318400B884C8823438C8823432D
:1021D000CC8823431843108210BD00210180418028
:1021E0008180C180704721B1828942F4005282818E
:1021F00004E082894DF6FF731A4082817047F0B582
:102200000346002400260025002040F66A17B94244
:1022100000D100BF1846C1F3421401F01F06012788
:1022200007FA06F5012C01D10C3004E0022C01D193
:10223000103000E014301AB107682F43076002E045
:102240000768AF430760F0BD1AB1838A0B438382EE
:1022500002E0838A8B4383827047028A4FF6F073D1
:102260001A400282028A0A430282704782894FF230
:10227000FF731A40828182890A438281704721B1AB
:10228000828942F00202828104E082894FF6FD7366
:102290001A4082817047028A4FF6DF731A40028229
:1022A000028A0A430282704721B1028A42F48042C4
:1022B000028204E0028A4BF6FF731A4002827047E2
:1022C000C1F308028280704701468888C0F3080085
:1022D0007047818941F0010181817047028BD2B240
:1022E0000283028B42EA012202837047028B02F4CE
:1022F0007F420283028B0A430283704721B1828AA4
:1023000042F02002828204E0828A4FF6DF731A4094
:102310008282704721B1828A42F01002828204E0F8
:10232000828A4FF6EF731A408282704721B1828A07
:1023300042F00802828204E0828A4FF6F7731A4064
:102340008282704721B1828942F40042828103E097
:102350008289C2F30E028281704721B1828A42F4DF
:102360000062828204E0828A4FF2FF731A40828206
:102370007047828A4FF6FB731A408282828A0A4330
:102380008282704721B1828A42F00202828204E096
:10239000828A4FF6FD731A408282704702460020FF
:1023A000B1F5007F00D100BF13880B400BB10120B5
:1023B00000E00020704701F40072B2F5007F00D108
:1023C00000BFCA430280704770B502460024002354
:1023D0000025002040F66A16B14200D100BFC1F3CB
:1023E000421501F01F03012606FA03F3012D02D165
:1023F0009689334006E0022D02D1168A334001E06F
:10240000968A33400C12012606FA04F416883440EA
:1024100013B10CB1012000E0002070BD10B5002206
:10242000002340F66A14A14200D100BF0A12012421
:102430009440A3B2DC43048010BD0000003801408A
:102440000044004000480040004C00400050004064
:1024500010B56FF00400FEF722F92E4800682E49EF
:10246000B0FBF1F02D4908700846007800EB400100
:10247000C1EBC0104FF6FF7101EAC0002849088087
:1024800010BD0146254A12784A434FF0E0235A61B5
:1024900000229A611A46126942F001021A6100BFD5
:1024A0004FF0E022106900F001021AB100F480320E
:1024B000002AF5D04FF0E022126922F001024FF01D
:1024C000E0231A6100229A6170470146144A12887B
:1024D0004A434FF0E0235A6100229A611A4612697A
:1024E00042F001021A6100BF4FF0E022106900F0D3
:1024F00001021AB100F48032002AF5D04FF0E02238
:10250000126922F001024FF0E0231A6100229A6161
:10251000704700000000002000127A0046000020F2
:1025200048000020A34A0A400243A34B1A607047A8
:102530000146072323EA010212029F4B1B1D186864
:102540004FF6FF0318409D4B184310439A4B1B1D39
:10255000186070472DE9F0410746884614461D462D
:102560002846FFF7E5FFC5F1040007FA00F60F2043
:10257000284100EA0800064306F00F06E21704EBC4
:10258000D2625211920002F1E022D2F800212146DB
:10259000E31704EBD3635B11A4EB431C012303FAA1
:1025A0000CF31A432046E31704EBD3635B119B0043
:1025B00003F1E023C3F800218148005D40EA0610E2
:1025C0007F490855BDE8F08170B504460B46CE172B
:1025D00001EB9676C6F38700CE1701EB9676B61020
:1025E000A1EB8606B606350E764B9B6943F00103D8
:1025F000744EB3614FEAB63353F820300F26AE4025
:10260000B343714E46F82030334653F8203004FA75
:1026100005F61E436C4B43F820606C4B1B6801268B
:102620008E403343694E336002F0010343B1674B80
:102630000C331B6801268E403343644E0C363360E6
:1026400002F0020343B1614B08331E6801238B4043
:102650001E435E4B08331E6070BD00B50020594913
:102660000861C8601420486100208861C86108467C
:10267000006840F00100086008464068544908407E
:102680005049486008460068524908404D49086072
:102690000846006820F4802008600846406820F45E
:1026A000FE0048600020886000214FF00060FFF7C6
:1026B00039FF00BD10B540480830006840F0040004
:1026C0003D49083108603F48C06940F080503D49AD
:1026D000C8614148406840F480703F4948600846FE
:1026E000006840F0040008600846006840F00200FE
:1026F0000860FDF7E1FD10BD3048001D2E49091DA1
:1027000008607047014649062E4A926942F001026C
:102710002C4B9A612C4A083A526822F0E0622A4B0C
:10272000083B5A601A4652680A435A60704730B5EF
:1027300004460025FFF791FF2248006840F48030EE
:102740002049086000BF1F480068400C0028FAD0EC
:102750004FF480601B494860A01EC4B20846406820
:1027600040EA844048600846406840F48030486051
:102770001A48006840F032001849086011480068A3
:1027800040F080700F49086000BF0E480068400E9E
:102790000028FAD00B48406840F002000949486020
:1027A00005E008484068C0F3870505F00305022DE1
:1027B000F7D130BD80FFFF1F08ED00E00000FA05F3
:1027C00000E400E000100240080001400004014065
:1027D0000000FFF8FFFFF6FE0070004000200240FE
:1027E000704700BF3B4A128802F04002002AF9D02D
:1027F000C2B2384B1B1D1A80704710B586B0044614
:10280000012144F20400FEF7ADFC4FF40070ADF876
:10281000140003208DF8160018208DF8170005A964
:102820002D48FEF7E3F94FF48060ADF81400042062
:102830008DF8170005A92848FEF7D8F925208DF84E
:10284000000001208DF801008DF802008DF80300D2
:102850006846FDF7DAFE01940020ADF80800ADF8F7
:102860000A00ADF80C00ADF810000C20ADF80E0019
:1028700001A91848FFF72BFC012240F22551154809
:10288000FFF7BDFC01211348FFF7ADFC06B010BDFA
:1028900010B540F225510F48FFF796FD08B101F041
:1028A00052FD10BD70B504460D4605EB042108B27B
:1028B00007F070FC0646304670BD0246002000213D
:1028C00004E0064B5B5C58404B1CD9B29142F8DBEC
:1028D000704700000038014000080140E00100207E
:1028E00000B587B001210846FEF749FC01210D2003
:1028F000FEF738FC0121D948FEF749FA0121D848F2
:10290000FEF745FA4FF40040ADF8000004208DF8C2
:1029100003006946D348FEF769F90820ADF80000C6
:1029200004208DF803006946CF48FEF75FF904A83C
:10293000FFF77CF80020ADF810004FF6FF70ADF8FF
:1029400014000020ADF81600ADF8120004A94FF0F5
:102950008040FEF73FFD00231A4603214FF08040E0
:10296000FFF747F901A8FFF774F80A20ADF80C004B
:1029700001A94007FEF7C1FF01218807FFF74CFBC3
:10298000012211469007FFF79CF800214FF080408C
:10299000FFF710FB01218807FFF778F807B000BDAB
:1029A00000B587B001210220FEF7E9FB01210420D8
:1029B000FEF7D8FBC020ADF8000004208DF803001E
:1029C0006946A848FEF712F904A8FFF72FF800207F
:1029D000ADF810004FF6FF70ADF814000020ADF810
:1029E0001600ADF8120004A9A048FEF7F3FC00237E
:1029F0001A4603219D48FFF7FCF801A8FFF729F8C4
:102A00000A20ADF80C0001A99848FEF776FF0121D5
:102A10009648FFF701FB012211469448FFF751F851
:102A200000219248FFF7C6FA01219048FFF72EF8DF
:102A300007B000BD00B587B001210420FEF79FFB61
:102A400001210820FEF78EFBC020ADF80000042015
:102A50008DF8030069468448FEF7C8F804A8FEF71D
:102A6000E5FF0020ADF810004FF6FF70ADF8140040
:102A70000020ADF81600ADF8120004A97C48FEF75E
:102A8000A9FC00231A4603217948FFF7B2F801A8F0
:102A9000FEF7DFFF0A20ADF80C0001A97448FEF72D
:102AA0002CFF01217248FFF7B7FA01221146704846
:102AB000FFF707F800216E48FFF77CFA01216C4808
:102AC000FEF7E4FF07B000BD00B587B00121082084
:102AD000FEF755FB01210420FEF744FB0320ADF86F
:102AE000000004208DF8030069465E48FEF77EF87A
:102AF00004A8FEF79BFF0020ADF810004FF6FF7012
:102B0000ADF814000020ADF81600ADF8120004A9CD
:102B10005848FEF75FFC00231A4603215548FFF78B
:102B200068F801A8FEF795FF0A20ADF80C0001A98E
:102B30005048FEF7E2FE01214E48FFF76DFA0122F0
:102B400011464C48FEF7BDFF00214A48FFF732FA14
:102B500001214848FEF79AFF07B000BD7FB5054642
:102B60000C4636208DF8000002208DF8010001206F
:102B70008DF802008DF803006846FDF746FD01213F
:102B80001020FEF7FCFAADF80850ADF80440002024
:102B9000ADF80600ADF80A0001A93748FEF71AFCA7
:102BA00001213548FFF738FA012211463248FEF775
:102BB00088FF01213048FEF769FF7FBD01460229E9
:102BC00006D003290DD0042914D0052924D11AE0F8
:102BD0004FF08042928C10B200224FF080439A84D2
:102BE0001CE0224A2432128810B200221F4B2433E8
:102BF0001A8013E01E4A2432128810B200221C4BA5
:102C000024331A800AE01B4A2432128810B20022B0
:102C1000184B24331A8001E0002000BF00BF70472A
:102C200010B501211248FFF7EEF901211048FFF716
:102C300007FA10BD10B501218807FFF7E4F901215B
:102C40008807FFF7FDF910BD10B501210748FFF710
:102C5000DAF901210548FFF7F3F910BD0003180068
:102C60000002300000080140000C01400004004058
:102C700000080040000C00400010004000B587B084
:102C8000012140F20440FEF76DFA4FF40040FEF7D8
:102C9000CDF91020ADF8040000208DF8070001A93F
:102CA0004248FDF7A3FF4248FDF718FD00200290BF
:102CB0008DF80C008DF80D004FF46020049000207A
:102CC000059001208DF8180002A93948FDF72DFD67
:102CD00001213748FDF755FD3548FDF774FD00BF6C
:102CE0003348FDF775FD0028FAD13148FDF77AFD2C
:102CF00000BF2F48FDF77BFD0028FAD107B000BDCB
:102D000010B504460723012221462948FDF7A5FDF9
:102D100001212748FDF775FD00BF02212448FDF77A
:102D2000E1FE0028F9D02248FDF7FEFD10BD2DE997
:102D3000F04F85B00420FFF7E3FF019006F04DFD52
:102D40004FF066321B4BCDE9020106F095FD80463F
:102D50000022194B06F090FD06460022174B06F0A4
:102D60008BFD04460022164B06F074FB824606F0EB
:102D700005FD0490049805B0BDE8F08F10B5044639
:102D80000723012221460F48FDF767FD01210D4869
:102D9000FDF737FD00BF00BF02210A48FDF7A2FE84
:102DA0000028F9D00748FDF7BFFD10BD000801401D
:102DB0000028014066660A40000026400000594095
:102DC0000000B0400024014008B501210820FEF7B2
:102DD000C9F92020ADF8000010208DF80300032071
:102DE0008DF8020069460D48FDF700FF08BD18B9CF
:102DF00001210B4A11600FE00A490968491C094A80
:102E00001160814208D106490968C943064AC2F8DF
:102E100094110021034A116070470000000C01402A
:102E200094812142500000200080214208B50121F8
:102E30001020FEF797F94FF47070ADF800001820DD
:102E40008DF8030003208DF8020069464448FDF721
:102E5000CDFE08BD30B587B005460C4601214803BC
:102E6000FEF780F9ADF81450ADF810400020ADF831
:102E70001200ADF8160004A93A48FEF7ABFA70202C
:102E8000ADF800000120ADF802000020ADF806000A
:102E9000ADF8080069463348FEF7D9FA694631486B
:102EA000FEF717FB69462F48FEF760FB69462D4881
:102EB000FEF7A7FB08212B48FEF718FF0821294839
:102EC000FEF71DFF08212748FEF726FF08212548A9
:102ED000FEF72BFF01212348FEF7D8FE01212148F0
:102EE000FEF7E0FD01211F48FEF7D0FD07B030BD21
:102EF00070B504460D46FFF799FF29462046FFF7B7
:102F0000A9FF70BD08B501211C20FEF72BF9382060
:102F1000ADF8000010208DF8030003208DF80200AA
:102F200069460F48FDF762FE4FF4C040ADF800005F
:102F300010208DF8030003208DF8020069460A482E
:102F4000FDF754FE2C20ADF8000010208DF8030092
:102F500003208DF8020069460448FDF747FE08BDCE
:102F60000010014000340140000C01400008014005
:102F700010B586B0044601210820FEF7F3F80121C0
:102F80008804FEF7FCF84FF48060ADF814000320CD
:102F90008DF8160018208DF8170005A93548FDF7A3
:102FA00025FE4FF40060ADF8140004208DF81700E2
:102FB00005A93048FDF71AFE27208DF800000120F2
:102FC0008DF801008DF802008DF803006846FDF7CA
:102FD0001CFB01940020ADF80800ADF80A00ADF824
:102FE0000C00ADF810000C20ADF80E0001A922482D
:102FF000FFF76DF8012240F225511F48FFF7FFF857
:1030000001211D48FFF7EFF806B010BD10B50446CA
:1030100021461948FFF754F900BF80211648FFF7F1
:10302000BDF90028F9D010BD70B505460E4605B9AA
:1030300070BD002404E0285DFFF7E8FF601C84B247
:10304000B442F8DB00BFF3E710B540F225510A485F
:10305000FFF7BAF968B140F225510748FFF7DEF9EA
:103060000548001D0088054908700846007801F0F1
:10307000C4F910BD000C014000480040540000207D
:1030800008B501211020FEF76DF80420ADF800000E
:103090008DF8030069465B48FDF7A8FD08BD5A4856
:1030A000008840B95948006828B959480088401C30
:1030B0005749088002E0002055490880544800889C
:1030C000C82807DD012050490880002050490880A9
:1030D000012070474C480088012802D100204A494D
:1030E00008800020F5E701464848006828B94948AB
:1030F0000088401C474A108002E00020454A1080AA
:103100004248006828B94448007810B90120424A72
:10311000107042480078B0B93F480078012807D1C4
:103120003F480078401C3E4A107001203B4A107016
:103130003B480078022806D10020394A1070394AED
:1031400010800220704731480068012804D1002017
:10315000314A1070314A10703148007801281CD172
:1031600030480088401C2F4A108010460088884252
:103170000ADD28480088884206DA0020284A1070B4
:10318000284A10800120DDE722480088884204DDBB
:103190000020234A1070234A10800020D2E710B587
:1031A0003220FFF7A0FF0346FFF779FF0446012B0B
:1031B0000AD11D480078012803D100201A4908705F
:1031C00002E0012018490870012C07D11748007847
:1031D00008B9012000E000201449087010BD14480F
:1031E000007838B10948006820B9002010490870FB
:1031F0000120704705480068012801D10C4908707A
:103200000020F6E700100140620000200801224281
:10321000600000205C0000205600002057000020C5
:10322000580000205A000020140000201500002043
:103230005E00002008B501210820FDF793FF4FF440
:103240008070ADF8000010208DF8030003208DF889
:1032500002006946FE48FDF7C9FC4FF40070ADF866
:10326000000010208DF8030003208DF8020069464D
:10327000F748FDF7BBFC08BDF549091D096821F0B9
:10328000F001F34A121D11601146096841F0300146
:1032900011600121EF4A1160EF4AC2F8A011192014
:1032A00000BF011EA0F10102D0B2FAD1E94A1160BB
:1032B000192000BF011EA0F10102D0B2FAD1E54AE7
:1032C000121F11607047E249091D096821F0F001E1
:1032D000DF4A121D11601146096841F0300111608A
:1032E0000021DC4A121F1160DB4AC2F8A411192028
:1032F00000BF011EA0F10102D0B2FAD10121D54ACE
:10330000121F1160192000BF011EA0F10102D0B2EE
:10331000FAD10121CF4A1160704770B504460025EB
:10332000CB48001D006820F0F000C949091D086065
:103330000846006840F0800008600120C549086028
:10334000192600BF301EA6F10101CEB2FAD101202C
:10335000C049091F0860192600BF301EA6F10101EF
:10336000CEB2FAD106E06D1CA54203D9FFF7ABFF40
:10337000002070BDB748803800680028F3D1B549F7
:10338000091F08600120F4E70021B24A121F1160F2
:10339000AF49091D096821F0F001AD4A121D116005
:1033A0001146096841F0300111600021AA4AC2F8B3
:1033B000A411192000BF011EA0F10102D0B2FAD160
:1033C0000121A44A121F1160192000BF011EA0F1A3
:1033D0000102D0B2FAD19F4A121F1160704700213A
:1033E0009C4A121F11609A49091D096821F0F001D9
:1033F000974A121D11601146096841F030011160B1
:103400000121954AC2F8A411192000BF011EA0F1A4
:103410000102D0B2FAD101218E4A121F1160192087
:1034200000BF011EA0F10102D0B2FAD1894A121FD9
:103430001160704710B5864B1B1D1B6823F0F0030D
:10344000834C241D236023461B6843F03003236014
:103450000023804C241F2360002122E000F0800321
:103460001BB101237B4C236002E00023794C2360D5
:103470004306180E192200BF131EA2F10104E2B286
:10348000FAD10123734C241F2360192200BF131E9D
:10349000A2F10104E2B2FAD16E4C241F23604B1C4E
:1034A000D9B20829DADB10BD2DE9F0410546002428
:1034B0006748001D006820F0F0006549091D08609C
:1034C0000846006840F08000086000261FE00020E9
:1034D0006049091F0860192700BF381EA7F10101C4
:1034E000CFB2FAD101205B49091F0860192700BF3C
:1034F000381EA7F10101CFB2FAD16006040E55487B
:103500008038006808B144F00104701CC6B2082E6F
:10351000DDDB15B9FFF763FF01E0FFF735FF20465C
:10352000BDE8F0812DE9F04105460E461746984664
:10353000FFF7A2FEE8B2FFF77DFF4046FFF7EDFE82
:1035400020B9FFF7C0FE0320BDE8F08100240CE0A5
:10355000305DFFF76FFF4046FFF7DFFE18B9FFF75A
:10356000B2FE0320F0E7601C84B2BC42F0DBFFF740
:10357000AAFE0020E8E72DE9F04106460F46154671
:103580009846FFF779FEF1B241F00100FFF752FFD4
:103590004046FFF7C2FE20B9FFF795FE0320BDE8C5
:1035A000F08100240BE0691EA14201D0012100E05E
:1035B00000210846FFF778FF3855601C84B2AC4202
:1035C000F1DBFFF780FE0020E9E72DE9F047054633
:1035D0000E4617469846DDF82090FFF74DFEE8B2FC
:1035E000FFF728FF4846FFF798FE10B90320BDE813
:1035F000F087F0B2FFF71EFF4846FFF78EFE08B9CE
:103600000320F4E700240AE0385DFFF713FF484683
:10361000FFF783FE08B90320E9E7601C84B2444544
:10362000F2DBFFF750FE0020E1E72DE9F047054609
:103630000F4690461E46DDF82090FFF71DFEE8B2CB
:10364000FFF7F8FE4846FFF768FE48B9032005E09B
:10365000000C0140A481214200802142BDE8F08796
:10366000F8B2FFF7E7FE4846FFF757FE08B9032018
:10367000EDE7FFF701FEE9B241F00100FFF7DAFEE6
:103680004846FFF74AFE08B90320E0E700240CE0B3
:10369000711EA14201D0012100E000210846FFF780
:1036A00003FF08F80400601C84B2B442F0DBFFF7AB
:1036B0000AFE0020CBE710B504462046FEF705FFC2
:1036C00010BD000010B586B0044601211020FDF7A2
:1036D00049FD0121C804FDF752FD4FF48060ADF8AB
:1036E000140003208DF8160018208DF8170005A986
:1036F0003648FDF77BFA4FF40060ADF81400042063
:103700008DF8170005A93148FDF770FA34208DF8BF
:10371000000001208DF8010002208DF80200012038
:103720008DF803006846FCF770FF01940020ADF8A7
:103730000800ADF80A00ADF80C00ADF810000C2040
:10374000ADF80E0001A92248FEF7C1FC012240F2AB
:1037500025511F48FEF753FD01211D48FEF743FD8B
:1037600006B010BD10B5044621461948FEF7A8FD65
:1037700000BF80211648FEF711FE0028F9D010BDC9
:1037800070B505460E4605B970BD002404E0285DFD
:10379000FFF7E8FF601C84B2B442F8DB00BFF3E738
:1037A00010B540F225510A48FEF70EFE68B140F20E
:1037B00025510748FEF732FE0548001D00880549DF
:1037C00008700846007800F0E7FF10BD00100140C7
:1037D000004C0040780000202DE9F04104460D46E1
:1037E0002946204606F06EFE0746684906F032FD7F
:1037F0000646294606F07CFBBDE8F08110B50121A4
:103800006348FEF70CFC002845D001216048FEF714
:1038100017FC60480068401D5E4908605E480078FB
:1038200008B9012000E000205B49087008460078D4
:10383000012811D100F0A7FB5849086000F09EFB59
:10384000574908605748007818B16420FFF7CFFA4D
:1038500002E00020FFF7CBFA5348006800F0C2FBFB
:10386000C8B9524801684E48006800F012FB504940
:103870000860504801684948006800F038FB4E492C
:10388000086041F61F4000F0D5FA4B4801684848EF
:10389000006800F086FB10BD4848007801280BD175
:1038A00047480078401CC0B2454908700A2803D137
:1038B000002008704149087070470146002901DA6C
:1038C000484200E00846704770B506460D4614466B
:1038D0002946304606F08AFC01D2284670BD2146B2
:1038E000304606F083FD01D22046F7E73046F5E783
:1038F00070B58CB002F02DF809A802F045F96846C1
:1039000002F04AF92F49099806F0A4FC04462D4913
:103910000A9806F09FFC05462A490B9806F09AFC87
:103920000646294801682046FFF756FF26490860E9
:10393000264801682846FFF74FFF244908602448BD
:1039400001683046FFF748FF214908601E480068BB
:10395000204908601D4800681F4908601C4800682D
:103960001E4908601749009806F074FC1C4908605D
:103970001449019806F06EFC1A4908601149029832
:1039800006F068FC184908600CB070BD9A99193EA1
:1039900000100040DC00002094000020D000002037
:1039A000CC00002015000020AC010020C400002045
:1039B000D4000020C8000020D800002018000020FB
:1039C00017000020E62E6542E0000020E400002001
:1039D000E8000020200000201C000020240000201F
:1039E000880000208C00002090000020164800680D
:1039F0007047072015490870704770B500241EE015
:103A0000FFF7F4FF054604EB4400114901EB800089
:103A10008068281A04EB44010D4A02EB81014968D1
:103A200088420AD304EB4400114601EB8000856014
:103A300004EB440152F821008047601CC4B20348E3
:103A400000788442DCDB70BDDC000020EC0000204C
:103A5000F000002010B5044604B910BD2422214610
:103A6000EE4802F041FB00BFF7E700B589B0242122
:103A7000684602F06BFB6846FFF7ECFF09B000BD3B
:103A80007CB5E74C00250020019001904FF4FA70BE
:103A90000090012301AA7F21D020A668B0472844C6
:103AA000C5B24FF4FA700090012301AA0021D02082
:103AB000E668B0472844C5B29DF80400EA2801D062
:103AC00001207CBD802001904FF4FA70009001230A
:103AD00001AA0621D020A668B0472844C5B26420B8
:103AE00021698847002001904FF4FA70009001236B
:103AF00001AA0321D020A668B0472844C5B20120FE
:103B0000019064200090012301AA0621D020A6681C
:103B1000B0472844C5B220200190642000900123C2
:103B200001AA7F21D020A668B0472844C5B2012051
:103B3000019064200090012301AA0021D020A668F2
:103B4000B0472844C5B22F20019064200090012383
:103B500001AA1946D020A668B0472844C5B2012062
:103B6000019064200090012301AA1121D020A668B1
:103B7000B0472844C5B22920019064200090012359
:103B800001AA1421D020A668B0472844C5B200205D
:103B9000019064200090012301AA7F21D020A66813
:103BA000B0472844C5B20220019064200090012350
:103BB00001AA0F21D020A668B0472844C5B26420CE
:103BC0000090012301AA19461820E668B04728444E
:103BD000C5B29DF80400092801D0012071E7082032
:103BE000019064200090012301AA31211820A668C9
:103BF000B0472844C5B20DB1012062E7FFF735FF99
:103C000000205EE77CB5864D0024002001900190E5
:103C10004FF4FA700090012301AA7F21D020AE68F2
:103C2000B0472044C4B24FF4FA700090012301AAB7
:103C30000021D020EE68B0472044C4B29DF80400B3
:103C4000EA2801D001207CBD402001904FF4FA7099
:103C50000090012301AA0621D020AE68B04720447D
:103C6000C4B20CB10120EEE70020ECE770B586B0DD
:103C700004466B4D0CB906B070BD642000900C2357
:103C800001AA2D21D020EE68B0479DF805109DF8BF
:103C9000042041EA022108B206F07CFAE0609DF8B7
:103CA00007109DF8062041EA022108B206F072FAD8
:103CB00020619DF809109DF8082041EA022108B210
:103CC00006F068FA60615749E06806F0C3FAE06000
:103CD0005449206906F0BEFA20615249606906F035
:103CE000B9FA60614D4AD168E06806F0EBFBE0602C
:103CF0004A4A1169206906F0E5FB2061474A51698B
:103D0000606906F0DFFB60619DF80B109DF80A20EA
:103D100041EA022108B206F03DFA20609DF80D103C
:103D20009DF80C2041EA022108B206F033FA6060E7
:103D30009DF80F109DF80E2041EA022108B206F00E
:103D400029FAA0603849206806F084FA20603649D4
:103D5000606806F07FFA60603349A06806F07AFA7E
:103D6000A0603249206806F075FA20602F4960682B
:103D700006F070FA60602D49A06806F06BFAA0604A
:103D8000264A1168206806F09DFB2060234A51688E
:103D9000606806F097FB6060204A9168A06806F0B2
:103DA00091FBA06064200090082304AA1121182030
:103DB000EE68B0479DF81700C0F3C00060BB9DF8E7
:103DC00010109DF8112041EA022108B206F0E2F934
:103DD000A0619DF812109DF8132041EA022108B25B
:103DE00006F0D8F9E0619DF814109DF8152041EA1D
:103DF000022108B206F0CEF920620D49A06906F052
:103E000029FAA0610A49E06906F024FAE06108494C
:103E1000206A06F01FFA206200BF2CE71C02002077
:103E200064000020CDCC1C3A00007A3D35FA8E3C6F
:103E30000020193E454909684242914202DA414256
:103E4000424A116041490968814201DD3F490860E9
:103E50003F4909684242914202DA41423C4A1160BC
:103E60003B490968814201DD3949086070470020FB
:103E7000384908603849086038490860384908609E
:103E8000384908603849086030490860304908609E
:103E9000704710B50246881A2E4B18601846006805
:103EA0002E4B1B68C01A642358432A4B1B680A24F4
:103EB00004FB0300284B1B681844274B1860254857
:103EC0000068264B186024480068B0F5E15F03DB0A
:103ED00041F61F40204B18601F48006810F5E15F55
:103EE00002DC22481C4B18601B48006810BD10B54E
:103EF0000246881A1A4B1860184600681A4B1B684D
:103F0000C01A64235843164B1B680A2404FB0300A1
:103F1000144B1B681844134B186011480068124B6F
:103F2000186010480068B0F5E15F03DB41F61F4000
:103F30000C4B18600B48006810F5E15F02DC0B4881
:103F4000084B18600748006810BD0000D40000202E
:103F5000D800002044010020480100204C0100202E
:103F6000500100205401002058010020E1E3FFFF30
:103F700010B5FEF715FDFEF75DFD10BD10B5032071
:103F8000FEF71CFE10BD10B50420FEF717FE10BD95
:103F900010B5002141F61F40FEF7AAFFFEF7B2FF61
:103FA00010BD70B505460C46002D03DA00201D49F2
:103FB000086002E001201B490860002C03DA0020A1
:103FC0001949086002E00120174908602846FFF7F8
:103FD00074FC164908802046FFF76FFC134908312E
:103FE000088070BD014600BF114A1278012A0FD126
:103FF0000F4B1A70012000220B4B1B1F1A600D4B38
:10400000C3F89421094B1A80084B08331A8007E043
:104010000122054B1B1F1A60064BC3F89421002098
:104020007047000094012142B8812142343401409C
:1040300014000020000022420FB470B5A2B0064662
:104040000EB1279828B94FF0FF3022B070BC5DF850
:1040500014FB28A80190802102A8019B279A01F057
:1040600025FE044600200190002C01DB802C02DBA1
:104070004FF0FF30E9E700250CE000BF802130461B
:10408000FEF78CF90028F9D002A8415D3046FEF712
:1040900017F96D1CA542F0DB2046D6E770B5044643
:1040A000EB49204606F0D6F80546EA49284606F0D0
:1040B0009DF901D2E74D05E0E749284606F096F85C
:1040C00000D2E54D0021284606F090F908D84FF0BF
:1040D0007C51284605F00CFF064606F03FF870BDFF
:1040E0004FF07C51284606F0EDF9064606F036F80A
:1040F000F5E70146232901DD2320704711F1230F45
:1041000002DA6FF02200F8E70846F6E770B50446D9
:10411000204601F07FFF85B229462046FEF784FF46
:1041200070BD10B50020CD490860CD490860012060
:10413000CC490870FFF79BFE0020CB490880CA4994
:104140000831088010BD2DE9F84F82468846914617
:104150000422C6A1504601F07CFF10B10020BDE84A
:10416000F88FC4A1504601F043FF0746C2A1504654
:1041700001F03EFF044607B10CB90020EFE70A2228
:104180006946B81C01F0FCFE0546B81C0099814246
:1041900003D0009800782C2801D00020DFE70A2205
:1041A0006946A01C01F0ECFE0646A01C0099814265
:1041B00002D00098007808B10020D0E715F5867F7E
:1041C00008DBB5F5867F05DC16F5867F02DBB6F5E4
:1041D000867F02DD4FF0FF30C1E7C8F80050C9F814
:1041E00000600120BBE77CB50546A4A1284601F08C
:1041F000D5FF30B90120A3490870A3A0FFF786FFBF
:104200007CBDA4A1284601F0C9FF30B900209D491A
:104210000870A2A0FFF77AFFF2E76A4601A92846D4
:10422000FFF791FF0446012C27D1FFF7DFFB9E49E2
:104230000860019805F0AEFF0646FFF72FFF87499B
:104240000860009805F0A6FF0646FFF727FF84499F
:104250000860019838B9009828B90020934908707F
:10426000FFF75FFF05E001209049087000207D49BD
:1042700008708FA0FFF74AFF08E0601C18B98EA0F5
:10428000FFF744FF02E08FA0FFF740FF00BFB7E752
:104290007C480078704710B58448007860B1FFF71B
:1042A000A5FB81490968401AB0F5FA7F04D30020C4
:1042B0007E490870FFF735FF10BD2DE9F0478146B4
:1042C00084A1484601F094FE05465DB1E81C04F067
:1042D00075FD074604F0D0FF06463046FFF7DEFEC8
:1042E0005E4908607CA1484601F082FE04465CB14C
:1042F000E01C04F063FD074604F0BEFF06463046AE
:10430000FFF7CCFE56490860BDE8F08770B504465B
:10431000A1796079FEF7C6FA064605F01FFF05B2DF
:104320002846FFF7E6FE4D490860217AE079FEF75E
:10433000B9FA064605F012FF05B22846FFF7D9FE86
:104340004749086070BD10B540F225516348FEF73B
:1043500065F86248001D04880D2C01D00A2C0ED18E
:104360005F48007800281ADD00215E485C4A127818
:104370008154FFF7A2FF0020594908700FE0584808
:1043800000781F2808D2564802780078401C544B09
:1043900018705448845402E0002051490870524873
:1043A0000068401C504908605049514A12688C54BA
:1043B0007B2C03D04E480068002805DD4C4800687F
:1043C000401C4B49086002E0002049490860484809
:1043D00000680B2810D10020454908604348807AC6
:1043E0007D2809D10920FEF768FA4049497A8842B8
:1043F00002D13E48FFF78AFF10BD10B504460D2CD0
:1044000001D00A2C0FD13B48007800281EDD002087
:104410003949384A127888540846FFF7E4FE0020EC
:104420003449087012E0334800783F2808D23148F8
:1044300001780078401C2F4A10702F48445405E042
:1044400000202C4908702DA0FFF760FE10BD000071
:1044500039BB053E00000C4200000CC2C400002025
:10446000C8000020140000203434014052504D2C6C
:10447000000000004C3A0000523A00004241543A19
:10448000310000005E0100204F4B2C4241543A3174
:104490000D0A00004241543A300000004F4B2C42BC
:1044A00041543A300D0A00006001002064010020F0
:1044B0004F4B0D0A000000004552522C52414E470E
:1044C000450D0A004552522C464F524D41540D0A9B
:1044D0000000000054433A0054443A0000380140C0
:1044E0005C0100204002002068010020E001002063
:1044F0006C0100205D010020600200204552522C1A
:104500004C454E0D0A0000000146232901DD232001
:10451000704711F1230F02DA6FF02200F8E7084626
:10452000F6E710B50020C1490860C14908600120C4
:10453000C0490870FFF79BFC0020BF490880BE49B6
:104540000831088010BD70B504463CB1204601F02A
:1045500061FD85B229462046FFF712F970BD2DE9AD
:10456000F04FA9B0B548006805F014FE0546B449FF
:1045700005F070FE0446B34905F02EFD8346B248AF
:10458000006805F007FE0546AD4905F063FE0446E8
:10459000AC4905F021FD0890AC48006805F0FAFD33
:1045A0000446AB4905F018FD0790079805F074FC28
:1045B00004460D46089805F06FFC06460F4658461F
:1045C00005F06AFCA3A28DE8C300CDE90445802173
:1045D00009A801F091FB8246BAF1000F07DDBAF19C
:1045E000800F04DA1FFA8AF109A8FFF7C9F829B089
:1045F000BDE8F08FF8B507460E46A4A1384601F095
:10460000F7FC05460DB90020F8BD0A22694605F100
:10461000090001F0B5FC044605F10900009981424A
:1046200002D00098007808B10020EDE71CB1012C01
:1046300001D00020E8E734600120E5E72DE9FE4FD6
:104640008346884691469A46042293A1584601F033
:1046500000FD10B10020BDE8FE8F91A1584601F089
:10466000C7FC054692A1584601F0C2FC044605B1BC
:104670000CB90020EFE702A905F10D0004F0C2FD1E
:10468000CDE9000104F0F8FD064605F10D000299A0
:10469000814203D0029800782C2801D00020DAE76C
:1046A00002A904F10E0004F0ADFDCDE9000104F013
:1046B000E3FD074604F10E000299814203D00298FF
:1046C00000782C2801D00020C5E751465846FFF756
:1046D00091FF08B90020BEE7C8F80060C9F8007073
:1046E0000120B8E710B57648007850B90120744928
:1046F0000870FFF77BF900F57A707249086000F0E6
:1047000067F910BD3EB504466B4601AA02A92046D2
:10471000FFF794FF18B96CA0FFF715FF3EBD029894
:10472000FFF7BCFC0546FFF7EFFE40490860019823
:10473000FFF7B4FC0546FFF7E7FE3D490860009827
:1047400010B9FFF7EEFE02E000203A49087062A0BF
:10475000FFF7F9FE00BFE1E710B5044660A120466F
:1047600001F01CFD10B9FFF7BDFF10BD04224AA1E6
:10477000204601F06EFC10B92046FFF7C3FF00BFD2
:10478000F3E710B50020584908704D4908704D49AD
:10479000086000F0B5F810BD10B504460D2C01D02E
:1047A0000A2C0FD15048007800281EDD00204F4908
:1047B0004D4A127888540846FFF7CEFF00204A4938
:1047C000087012E0484800785F2808D2464801780F
:1047D0000078401C444A10704448445405E00020CE
:1047E0004149087042A0FFF7AEFE10BD10B5344835
:1047F000007850B1FFF7FAF832490968401A04D43A
:1048000000202F49087000F07BF810BD10B5FFF7AD
:10481000EDF8044639480068201A642805D3374863
:10482000046001F0CBF9FFF79AFE10BDC400002030
:10483000C80000201400002034340140CC000020C7
:104840000000864300000C42D0000020AC01002094
:104850000000C84246422C6C6566745F72706D3D04
:10486000252E33662C72696768745F72706D3D2502
:104870002E33662C626174746572795F766F6C7426
:104880006167653D252E32660D0A0000626F617416
:104890005F72756E3D000000434D442C0000000027
:1048A0006C6566745F7365745F72706D3D000000C7
:1048B00072696768745F7365745F72706D3D000044
:1048C00071010020740100204552522C464F524D78
:1048D00041540D0A000000004F4B0D0A000000007B
:1048E000424952440000000070010020A002002054
:1048F0004552522C4C454E0D0A0000007801002014
:1049000010B5002211463A48FDF7C5FA0021384893
:10491000FDF7C8F800213648FDF7B8F84FF480716C
:104920003448FCF712FA10BD00B589B0012140F6F9
:104930000400FCF717FC4FF48070ADF8200018203D
:104940008DF8230003208DF8220008A92948FCF7E0
:104950004DF940F60F60ADF818000020ADF81400D6
:10496000ADF81600ADF81A008DF81C0005A9204816
:10497000FCF730FD6020ADF804000120ADF8060022
:104980000020ADF808004FF4E160ADF80A00002007
:10499000ADF80C00ADF80E00ADF81000ADF8120047
:1049A00001A91348FCF753FD08211148FDF79EF9B2
:1049B00001210F48FDF76AF901210D48FDF772F852
:1049C00000210B48FDF762F8FFF79AFF09B000BD20
:1049D00010B501210648FDF759F801210448FDF7FB
:1049E00061F8012200210248FDF755FA10BD0000D0
:1049F000002C01400008014070B506460D461446E3
:104A00002946304605F0F2FB01D2284670BD21460A
:104A1000304605F0EBFC01D22046F7E73046F5E7DB
:104A200010B504460021204605F0E0FB02D284F0D8
:104A3000004010BD2046FCE710B5044604E0FE49E6
:104A4000204605F03FFD0446FC49204605F0CEFC1B
:104A5000F5D304E0F849204605F04AFA0446F8493F
:104A6000204605F0C3FBF5D3204610BD0020F549D4
:104A70000870F5490860486088604FF07E50F3493F
:104A80000860002048608860C860F1490860F1490A
:104A90000860F1490880F1490870F14908607047E1
:104AA0002DE9F04F8BB00446E84805684668D0F819
:104AB0000890D0F80CA049464FF0804005F0CAFBA2
:104AC0004946029005F0C6FB834631464FF0404010
:104AD00005F0C0FB3146029005F0BCFB594603903F
:104AE00005F0F0FC80464FF07E5105F001FA0746D4
:104AF00005F0D2F9CDE9060129464FF0804005F0D6
:104B0000A9FB3146039005F0A5FB804649464FF0CE
:104B1000804005F09FFB5146039005F09BFB8346C8
:104B2000414605F0E5F9074605F0B6F9CDE904017F
:104B3000DDE9062304F074F8CDE9080104F09CFBDC
:104B4000206029464FF0804005F084FB49460490E0
:104B500005F080FB314606904FF0404005F07AFBAF
:104B60005146049005F076FB0590069905F0C0F9D2
:104B700083464FF07E52BB49FFF73EFF079005F09A
:104B80008BF9CDE9080103F003FE074604F074FB3E
:104B900060605146504605F05DFB4946039048462B
:104BA00005F058FB31460290304605F053FB29468C
:104BB0000190284605F04EFB0090019905F098F908
:104BC0008346029905F07EFC8046039905F07AFC45
:104BD000074605F061F9CDE906015146284605F082
:104BE00039FB83464946304605F034FB594603906D
:104BF00005F07EF980464FF0804105F02BFB07461B
:104C000005F04AF9CDE90401DDE9062304F008F8CE
:104C1000CDE9080104F030FBA0600BB0BDE8F08FD7
:104C20002DE9F04F8BB004460D46216A084605F089
:104C300011FB0690E169084605F00CFB0490A169A0
:104C4000084605F007FB0390049905F051F905901B
:104C5000069905F04DF9079005F01EF9CDE9080118
:104C600004F0AAFA074604F007FB0A907E490A9866
:104C700005F0BCFA04D37D490A9805F0B7FB03D2CE
:104C800000200BB0BDE8F08F606905F005F9CDE9B3
:104C90000801206905F000F9CDE90601DDE90823E6
:104CA00003F0BEFF074604F0E7FA064661690846CE
:104CB00005F0D0FA02902169084605F0CBFA019080
:104CC000029905F015F9039005F0E6F8074604F09F
:104CD00073FACDE90601E06880F00047384605F038
:104CE000DBF8CDE90401DDE9062303F099FFCDE906
:104CF000080104F0C1FA8146484604F099F9089089
:104D0000304604F071F80790216A05F0A3FA804656
:104D1000089905F09FFA0990484604F089F9079030
:104D2000304604F085F90590E16905F093FA0690A4
:104D3000079905F08FFA8046484604F055F8079029
:104D4000A16905F087FA4146089005F0D1F80746B9
:104D5000099905F0CDF88246304604F069F90990CA
:104D6000216A05F077FA0746304604F03DF80990CD
:104D7000E16905F06FFA8046394605F0A3FB8346EA
:104D8000504605F089F8CDE908018BF00040059008
:104D900005F082F8CDE90601DDE9082303F040FFC4
:104DA000074604F069FA286001206AE72DE9FE4F02
:104DB00004466169084605F04DFA029021690846EB
:104DC00005F048FA0190E168084605F043FA0090C2
:104DD000019905F08DF88346029905F089F882461D
:104DE00005F05AF8074604F0E7F9054604F044FADE
:104DF00081461F49484605F065FB0646FFF710FE51
:104E000005464FF07A5105F0F1F944D22068FFF7DA
:104E100007FE0546174905F0E9F93CD26068FFF73F
:104E2000FFFD0546134905F0E1F934D2A068FFF70C
:104E3000F7FD05460F491FE0DA0FC940DA0F494078
:104E4000DA0F49C07C0100206003002080010020AF
:104E50009001002094010020980100209A01002078
:104E60009C010020000080BF0000A0410000F04233
:104E7000CDCC1C4188C3643C05F0B8F90BD2FE4888
:104E800000884FF6FF71884208DAFB480088401C12
:104E9000F949088002E00020F7490880F6480088B8
:104EA00028280BDBF548A16805F0D4F90546F4483D
:104EB0000168284605F01CF8F1490860F049A0682F
:104EC000096805F0FFFAA060BDE8FE8F70B50446E2
:104ED0000D4624222146EB4801F006F9EA4895E800
:104EE0000E000EC0E748FEF7B5FDFFF7BFFD70BD31
:104EF00003B595B0159840690690159840690590DE
:104F0000069905F0A7F9089015980069049015987E
:104F100000690390049905F09DF906901598C06802
:104F200004901598C0680390049905F093F90590D2
:104F3000069904F0DDFF0790089904F0D9FF099065
:104F400004F0AAFFCDE90A0104F036F9CDE90C011D
:104F500004F092F913901598006A06901598006A6B
:104F60000590069905F076F908901598C0690490A7
:104F70001598C0690390049905F06CF9069015988E
:104F800080690490159880690390049905F062F98E
:104F90000590069904F0ACFF0790089904F0A8FF6B
:104FA000099004F079FFCDE90A0104F005F9CDE993
:104FB0000C0104F061F91290B449139805F016F948
:104FC00004D3B249129805F011F904D21698FFF7EC
:104FD00067FD17B000BD1598C0680D90139904F0D7
:104FE000FBFF1599C860159800690D90139904F09E
:104FF000F3FF014615980161159840690D901399CA
:1050000004F0EAFF014615984161159880690D90FA
:10501000129904F0E1FF159988611598C0690D9007
:10502000129904F0D9FF01461598C1611598006ADC
:105030000D90129904F0D0FF014615980162159861
:105040004069079004F028FFCDE90A01159800692E
:10505000079004F021FFCDE90801DDE90A2303F000
:10506000DFFDCDE90C0104F007F9119015984069B6
:105070000290159840690190029905F0EBF80490B0
:10508000159800690290159800690190029905F041
:10509000E1F80390049904F02BFF059004F0FCFE66
:1050A000CDE9060104F088F8CDE90A011598C06839
:1050B00080F00040079004F0EFFECDE90801DDE943
:1050C0000A2303F0ADFDCDE90C0104F0D5F81090F2
:1050D0000EA91598FFF7A4FD40B10E980F906C49EA
:1050E0000E98086001206B49087005E000200F90C1
:1050F00067490860674908704FF07C510F9805F0C8
:10510000A9F8099003F094FF4FF07C510B90109890
:1051100005F0A0F8079003F08BFF4FF07C51099049
:10512000119805F097F8079003F082FF089009990D
:1051300005F090F80A900B9905F08CF84FF07C512F
:105140000D900F9805F086F8099003F04DFE4FF092
:105150007C510B90109805F07DF8079003F044FE09
:105160004FF07C510990119805F074F8079003F006
:105170003BFE0890099905F06DF80A900B9905F02F
:1051800069F80C900D9904F0B3FE434908604FF0A4
:105190007C510F9805F05EF8099003F049FF4FF03D
:1051A0007C510B90109805F055F8079003F040FFE4
:1051B0004FF07C510990119805F04CF8079003F0DE
:1051C00013FE0890099905F045F80A900B9905F02F
:1051D00041F84FF07C510D900F9805F03BF8099085
:1051E00003F002FE4FF07C510B90109805F032F85E
:1051F000079003F0F9FD4FF07C510990119805F0EC
:1052000029F8079003F014FF0890099905F022F897
:105210000A900B9905F01EF80C900D9905F052F9C3
:105220001D4948604FF07C510F9805F013F8099024
:1052300003F0FEFE4FF07C510B90109805F00AF839
:10524000079003F0D1FD4FF07C510990119805F0C3
:1052500001F8079003F0ECFE0890099904F0FAFFBA
:105260000A900B9904F0F6FF4FF07C510D900F98C7
:1052700004F0F0FF099011E0980100200AD7A33C48
:10528000940100203003002054030020BD378635F0
:105290009C0100209A0100208001002003F0A4FD61
:1052A0004FF07C510B90109804F0D4FF079003F05E
:1052B000BFFE4FF07C510990119804F0CBFF07908E
:1052C00003F092FD0890099904F0C4FF0A900B992D
:1052D00004F0C0FF0C900D9904F00AFEFE498860AE
:1052E0004FF07C510F9804F0B5FF099003F07CFD5E
:1052F0004FF07C510B90109804F0ACFF079003F036
:1053000097FE4FF07C510990119804F0A3FF07908D
:1053100003F08EFE0890099904F09CFF0A900B9907
:1053200004F098FF4FF07C510D900F9804F092FF1D
:10533000099003F07DFE4FF07C510B90109804F023
:1053400089FF079003F050FD4FF07C5109901198B0
:1053500004F080FF079003F047FD0890099904F0DE
:1053600079FF0A900B9904F075FF0C900D9905F0E8
:10537000A9F8D949C8600020D84908604860886009
:10538000D74908600120D74908701698FFF788FBB5
:1053900000211698816000BF1BE603B5A5B0CE487A
:1053A00000682390CC4840682290CB4880682190C8
:1053B000C948C0682090CB48007830BBDDE92501A2
:1053C000FFF796FDC84800680B90269800680A9081
:1053D0000B9905F077F826990860C34840680B9050
:1053E000269840680A900B9905F06CF82699486059
:1053F000BD4880680B90269880680A900B9905F04C
:1054000061F82699886027B000BD2598406904900E
:10541000259840690390049904F01CFF0690259894
:1054200000690290259800690190029904F012FF2A
:1054300004902598C06802902598C0680190029950
:1054400004F008FF0390049904F052FD05900699BA
:1054500004F04EFD079004F01FFDCDE9080103F0B4
:10546000ABFECDE90A0103F007FF1F909F491F988B
:1054700004F0BCFE00D2C6E72598C0680B901F99C7
:1054800004F0AAFD2599C860259800690B901F9922
:1054900004F0A2FD014625980161259840690B9012
:1054A0001F9904F099FD014625984161239908460A
:1054B00004F0D0FE1390DDE9221004F0CBFE129030
:1054C0002199239804F0C6FE11902299084604F011
:1054D000C1FE10902099229804F0BCFE0F902199F3
:1054E000084604F0B7FE0E90DDE9201004F0B2FE8D
:1054F0000D902099084604F0ADFE0C9011990F987C
:1055000004F0E0FF4FF080410B9004F0A3FE1E90EA
:105510000D99129804F0ECFC4FF080410B9004F0D0
:1055200099FE1D901099139804F0CCFF0A900E99E3
:1055300004F0C8FF0B900C9904F0DAFC1C9025983D
:10554000406909901D9904F085FE0B90259800692B
:1055500009901C9904F07EFE0A900B9904F0B2FFAA
:105560001B902598C06809901C9904F073FE0B905D
:105570002598406909901E9904F06CFE0A900B99D9
:1055800004F0A0FF1A905A491B9804F063FE0A9099
:1055900052480068014609900A9804F0A9FC4FF0AF
:1055A000804251420B90FFF727FA4C49086050495E
:1055B0001A9804F04FFE0A90484840680146099046
:1055C0000A9804F095FC4FF0804251420B90FFF78F
:1055D00013FA424948600020886008460068014686
:1055E0000990444804F036FE0B904FF082401B991E
:1055F00004F030FE0990259800680146089009984B
:1056000004F076FC0A900B9904F072FC259908606E
:105610003248406801460990364804F01BFE0B9062
:105620004FF082401A9904F015FE099025984068C1
:1056300001460890099804F05BFC0A900B9904F06D
:1056400057FC259948602398199022981890219822
:10565000179020981690259880680146079020980A
:1056600004F0F8FD099025984068014605902198BE
:1056700004F0F0FD0790229880F0004005902598F6
:10568000006801460490059804F0E4FD069007992F
:1056900004F018FF0890099904F014FF16490A90C5
:1056A00004F0D8FD0B90239904F022FC2390259858
:1056B000406801460790169804F0CCFD09902598A3
:1056C000806801460590179804F0C4FD079025985E
:1056D00000680146059011E0800100206003002071
:1056E000900100207C01002054030020FFE6DB2E07
:1056F0000AD7A33B6F12033C0AD7233B199804F047
:10570000A9FD0690079904F0F3FB0890099904F0AD
:10571000D9FEFE490A9004F09DFD0B90189904F003
:10572000E7FB22902598006801460790169804F040
:1057300091FD09902598806801460590189804F01D
:1057400089FD07902598406801460590199804F056
:1057500081FD0690079904F0B5FE0890099904F0C0
:10576000C7FBEA490A9004F075FD0B90179904F005
:10577000BFFB21902598006801460790179804F018
:1057800069FD09902598406801460590189804F035
:1057900061FD07902598806801460590199804F0EE
:1057A00059FD0690079904F0A3FB0890099904F0AD
:1057B00089FED6490A9004F04DFD0B90169904F02D
:1057C00097FB20902099084604F044FD069021990B
:1057D000084604F03FFD04902299084604F03AFD83
:1057E00002902399084604F035FD0190029904F0D7
:1057F0007FFB0390049904F07BFB0590069904F06D
:1058000077FB079004F048FBCDE9080103F0D4FCD6
:10581000CDE90A0103F030FD1F901F99239804F091
:10582000DBFB23901F99229804F0D6FB22901F994E
:10583000219804F0D1FB2190DDE91F1004F0CCFB8E
:105840002090B34923980860229848602198886086
:105850002098C8602698FFF723F925988068AD49FD
:105860000A9004F0F7FC0B90AB4801680B9804F029
:105870003FFBA949086008460068FFF7DDF8A64924
:10588000086015A92598FFF7CBF960B3A348007805
:1058900028B9A349159808600120A0490870A048BC
:1058A0000168159804F00EFE0A909B4801680A985A
:1058B00004F008FE0B90FFF7BFF81490994A9A493C
:1058C0001498FFF799F814909849149804F0C2FCC2
:1058D0000A90914801680A9804F00AFB0B90FFF7C0
:1058E000ABF88D490860924800680B9026980068D4
:1058F0000A900B9904F0E6FD0146269801608C4859
:1059000040680B90269840680A900B9904F0DAFDE5
:10591000014626984160804801682698816000BF52
:1059200071E510B5FEF7A1F82421824800F00EFCC5
:105930008148002101604160816024217F4800F09E
:1059400005FC7B480021016041608160FFF78EF813
:1059500010BD10B57748FEF789F97648FFF726FAAB
:1059600075497448FFF719FD24227249744800F004
:10597000BBFB7448704B0ECB0EC010BDF0B599B098
:1059800004460E46242110A800F0E0FB242107A8BD
:1059900000F0DCFB0020049005900690019002903E
:1059A00003900CB919B0F0BD002553E06148FEF733
:1059B0005DF961495F48FFF7F0FC5E4AD1681398D2
:1059C00004F096FA13905B4A1169149804F090FA67
:1059D0001490584A5169159804F08AFA1590554A5E
:1059E0001168109804F084FA1090524A5168119886
:1059F00004F07EFA11904F4A9168129804F078FAF8
:105A000012904C4A9169169804F072FA1690494A1D
:105A1000D169179804F06CFA1790464A116A1898E1
:105A200004F066FA1890444A1168049804F060FA89
:105A30000490414A5168059804F05AFA05903E4A8C
:105A40009168069804F054FA06903046FCF73DFD44
:105A5000681C85B2A542A9DB204604F0B3FB0746CB
:105A60003946139804F0B8FA0A90204604F0AAFBCD
:105A700007463946149804F0AFFA0B90204604F01C
:105A8000A1FB07463946159804F0A6FA0C9020466B
:105A900004F098FB07463946109804F09DFA0790E9
:105AA000204604F08FFB07463946119804F094FA1B
:105AB0000890204604F086FB07463946129804F009
:105AC0008BFA0990204604F07DFB0746394616986C
:105AD00004F082FA0D90204604F074FB0746394624
